:020000040000FA
:0400000032EF00F0EB
:100008004E82D9CF3CF0DACF3DF00E01C5AB0FEFF1
:1000180000F011EF00F021EF00F0FE0ED36E0C0E91
:10002800D26EC59B4304D8A41CEF00F01FEF00F06C
:10003800010E20EF00F0000E436EC8AB26EF00F073
:1000480028EF00F02CEF00F069EC1AF072EC15F0D4
:100058003DC0DAFF3CC0D9FF4E92110058EF1AF0AC
:100F000000010101010101000000010100000000D9
:100F100000010100010100010001010101000001C7
:100F200000000101000001010001000101000101B8
:100F300000010001010101010001010100000000A8
:100F40000001010101010101000101010100010194
:100F50000000010020EE83F0070EDE6AE806FDE2E5
:100F600000017C510DE1400E795D420E7A590F0E61
:100F70007B59D8A0BEEF07F0C0EF07F0DAEF07F01B
:100F800079C06DF07AC06EF07BC06FF07CC070F0FD
:100F9000400E716F420E726F0F0E736F000E746F02
:100FA0004CEC18F06DC079F06EC07AF06FC07BF039
:100FB00070C07CF079C06DF07AC06EF07BC06FF0CD
:100FC0007CC070F00A0E0001716F000E726F000E8F
:100FD000736F000E746F4CEC18F000016D517D6F53
:100FE0000A0E646F000E656F000E666F000E676F6D
:100FF00079C060F07AC061F07BC062F07CC063F0C1
:1010000060EC17F060C06DF061C06EF062C06FF010
:1010100063C070F00A0E0001716F000E726F000E57
:10102000736F000E746F4CEC18F000016D517E6F01
:10103000640E646F000E656F000E666F000E676FC2
:1010400079C060F07AC061F07BC062F07CC063F070
:1010500060EC17F060C06DF061C06EF062C06FF0C0
:1010600063C070F00A0E0001716F000E726F000E07
:10107000736F000E746F4CEC18F000016D517F6FB0
:10108000E80E646F030E656F000E666F000E676FEB
:1010900079C060F07AC061F07BC062F07CC063F020
:1010A00060EC17F060C06DF061C06EF062C06FF070
:1010B00063C070F00A0E0001716F000E726F000EB7
:1010C000736F000E746F4CEC18F000016D51806F5F
:1010D000100E646F270E656F000E666F000E676F4F
:1010E00079C060F07AC061F07BC062F07CC063F0D0
:1010F00060EC17F060C06DF061C06EF062C06FF020
:1011000063C070F00A0E0001716F000E726F000E66
:10111000736F000E746F4CEC18F000016D51816F0D
:10112000A00E646F860E656F010E666F000E676F0E
:1011300079C060F07AC061F07BC062F07CC063F07F
:1011400060EC17F060C06DF061C06EF062C06FF0CF
:1011500063C070F00A0E0001716F000E726F000E16
:10116000736F000E746F4CEC18F000016D51826FBC
:10117000830E646F000E656F000E666F010E606F68
:101180007F513EEC1AF00001676F88EC16F0830E79
:101190000001646F000E656F010E666F070E606FD1
:1011A0007F513EEC1AF00001676F88EC16F0830E59
:1011B0000001646F000E656F020E666F020E606FB5
:1011C0007F513EEC1AF00001676F88EC16F0830E39
:1011D0000001646F000E656F030E666F030E606F93
:1011E0007E513EEC1AF00001676F88EC16F0830E1A
:1011F0000001646F000E656F040E666F040E606F71
:101200007E513EEC1AF00001676F88EC16F0830EF9
:101210000001646F000E656F050E666F050E606F4E
:101220007E513EEC1AF00001676F88EC16F0830ED9
:101230000001646F000E656F060E666F060E606F2C
:101240007E513EEC1AF00001676F88EC16F0830EB9
:101250000001646F000E656F0A0E666F000E606F0E
:101260007E513EEC1AF00001676F88EC16F0830E99
:101270000001646F000E656F0B0E666F010E606FEC
:101280007E513EEC1AF00001676F88EC16F0830E79
:101290000001646F000E656F0C0E666F070E606FC5
:1012A0007E513EEC1AF00001676F88EC16F0830E59
:1012B0000001646F000E656F0D0E666F020E606FA9
:1012C0007E513EEC1AF00001676F88EC16F0830E39
:1012D0000001646F000E656F0E0E666F030E606F87
:1012E0007D513EEC1AF00001676F88EC16F0830E1A
:1012F0000001646F000E656F0F0E666F040E606F65
:101300007D513EEC1AF00001676F88EC16F0830EF9
:101310000001646F000E656F100E666F050E606F42
:101320007D513EEC1AF00001676F88EC16F0830ED9
:101330000001646F000E656F110E666F060E606F20
:101340007D513EEC1AF00001676F88EC16F0830EB9
:101350000001646F000E656F120E666F000E606F05
:101360007D513EEC1AF00001676F88EC16F0830E99
:101370000001646F000E656F130E666F010E606FE3
:101380007D513EEC1AF00001676F88EC16F0830E79
:101390000001646F000E656F140E666F070E606FBC
:1013A0007D513EEC1AF00001676F88EC16F0830E59
:1013B0000001646F000E656F150E666F020E606FA0
:1013C0007D513EEC1AF00001676F88EC16F0830E39
:1013D0000001646F000E656F1B0E666F030E606F79
:1013E0007F513EEC1AF00001676F88EC16F0830E17
:1013F0000001646F000E656F1C0E666F040E606F57
:101400007F513EEC1AF00001676F88EC16F0830EF6
:101410000001646F000E656F1D0E666F050E606F34
:101420007F513EEC1AF00001676F88EC16F0830ED6
:101430000001646F000E656F1E0E666F060E606F12
:101440007F513EEC1AF00001676F88EC16F0830EB6
:101450000001646F000E656F1F0E666F000E606FF7
:101460007F513EEC1AF00001676F88EC16F0830E96
:101470000001646F000E656F200E666F010E606FD5
:1014800082513EEC1AF00001676F88EC16F0830E73
:101490000001646F000E656F210E666F070E606FAE
:1014A00082513EEC1AF00001676F88EC16F0830E53
:1014B0000001646F000E656F220E666F020E606F92
:1014C00082513EEC1AF00001676F88EC16F0830E33
:1014D0000001646F000E656F230E666F030E606F70
:1014E00081513EEC1AF00001676F88EC16F0830E14
:1014F0000001646F000E656F240E666F040E606F4E
:1015000081513EEC1AF00001676F88EC16F0830EF3
:101510000001646F000E656F250E666F050E606F2B
:1015200081513EEC1AF00001676F88EC16F0830ED3
:101530000001646F000E656F260E666F060E606F09
:1015400081513EEC1AF00001676F88EC16F0830EB3
:101550000001646F000E656F2A0E666F000E606FEB
:1015600081513EEC1AF00001676F88EC16F0830E93
:101570000001646F000E656F2B0E666F010E606FC9
:1015800081513EEC1AF00001676F88EC16F0830E73
:101590000001646F000E656F2C0E666F070E606FA2
:1015A00081513EEC1AF00001676F88EC16F0830E53
:1015B0000001646F000E656F2D0E666F020E606F86
:1015C00081513EEC1AF00001676F88EC16F0830E33
:1015D0000001646F000E656F2E0E666F030E606F64
:1015E00080513EEC1AF00001676F88EC16F0830E14
:1015F0000001646F000E656F2F0E666F040E606F42
:1016000080513EEC1AF00001676F88EC16F0830EF3
:101610000001646F000E656F300E666F050E606F1F
:1016200080513EEC1AF00001676F88EC16F0830ED3
:101630000001646F000E656F310E666F060E606FFD
:1016400080513EEC1AF00001676F88EC16F0830EB3
:101650000001646F000E656F320E666F000E606FE2
:1016600080513EEC1AF00001676F88EC16F0830E93
:101670000001646F000E656F330E666F010E606FC0
:1016800080513EEC1AF00001676F88EC16F0830E73
:101690000001646F000E656F340E666F070E606F99
:1016A00080513EEC1AF00001676F88EC16F0830E53
:1016B0000001646F000E656F350E666F020E606F7D
:1016C00080513EEC1AF00001676F88EC16F0830E33
:1016D0000001646F000E656F3A0E666F010E676F52
:1016E00088EC16F0830E0001646F000E656F3B0EF0
:1016F000666F030E606F82513EEC1AF00001676F57
:1017000088EC16F0830E0001646F000E656F3C0ECE
:10171000666F040E606F82513EEC1AF00001676F35
:1017200088EC16F0830E0001646F000E656F3D0EAD
:10173000666F050E606F82513EEC1AF00001676F14
:1017400088EC16F0830E0001646F000E656F3E0E8C
:10175000666F060E606F82513EEC1AF00001676FF3
:1017600088EC16F0830E0001646F000E656F3F0E6B
:10177000666F000E606F82513EEC1AF00001676FD9
:1017800088EC16F083C060F084C061F085C062F020
:1017900086C063F087C064F088C065F089C066F0D9
:1017A0008AC067F091EC18F012000001A351800B81
:1017B000AC6FA351A325AE6FA2AFE1EF0BF0E3EF47
:1017C0000BF0E4EF0BF0AE81AE51D8B4EAEF0BF0C2
:1017D000ECEF0BF001EF0CF0AE29D8A4F2EF0BF018
:1017E000F4EF0BF0FCEF0BF0000EA06F000EA16FFA
:1017F000000EA26F000EA36FA28F000EA36F09EF61
:101800000CF0000EA06F000EA16F000EA26F000E74
:10181000A36FA751800BAD6FAC51AD19D8B413EFC6
:101820000CF015EF0CF016EF0CF0AC8DA751A725BE
:10183000AD6FA6AF1EEF0CF020EF0CF021EF0CF017
:10184000AD81AD51D8B427EF0CF029EF0CF03EEF8D
:101850000CF0AD29D8A42FEF0CF031EF0CF039EFDC
:101860000CF0000EA46F000EA56F000EA66F000E08
:10187000A76FA68F000EA76F46EF0CF0000EA46FA7
:10188000000EA56F000EA66F000EA76FAE51AD5DE6
:10189000D8B04DEF0CF04FEF0CF076EF0CF0ACAD94
:1018A00054EF0CF056EF0CF058EF0CF0800EAC1B20
:1018B000AEC0AFF0ADC0AEF0AFC0ADF0A0C0AFF005
:1018C000A4C0A0F0AFC0A4F0A1C0AFF0A5C0A1F02B
:1018D000AFC0A5F0A2C0AFF0A6C0A2F0AFC0A6F006
:1018E000A3C0AFF0A7C0A3F0AFC0A7F0000EAF6FCA
:1018F000AE51ADC0A8F0A96BA85F000EA95BA9BF4F
:101900008BEF0CF0A95109E11A0EA85DD8A08BEF5E
:101910000CF08DEF0CF0C4EF0CF0A051A111A2114E
:10192000A311D8A496EF0CF099EF0CF0010E9AEFEA
:101930000CF0000EAF6F000EA06F000EA16F000E36
:10194000A26F000EA36FADC0AEF0CDEF0CF0AFA153
:10195000ACEF0CF0AEEF0CF0B4EF0CF0D890AF3170
:101960000109AF6FB6EF0CF0D890AF33A0A1BBEF79
:101970000CF0BDEF0CF0BEEF0CF0AF8FA335A3332E
:10198000A233A133A033AE2BAD51AE5DD8A0CBEFC7
:101990000CF0CDEF0CF0A7EF0CF0ACBDD2EF0CF0DB
:1019A000D4EF0CF014EF0DF0AE51D8A4DAEF0CF038
:1019B000DCEF0CF0E6EF0CF0000EA06F000EA16F54
:1019C000000EA26F000EA36F35EF0EF0A451A027FA
:1019D000A551A123A651A223A751A323A3A1F3EFAD
:1019E0000CF0F5EF0CF0A1EF0DF0AFA1FAEF0CF059
:1019F000FCEF0CF002EF0DF0D890AF310109AF6FA2
:101A000004EF0DF0D890AF33A0A109EF0DF00BEF6C
:101A10000DF00CEF0DF0AF8FA335A333A233A1333C
:101A2000A033AE2BA1EF0DF0A451A05DA551A1599B
:101A3000A651A259A351800AA86FA751800AA8599C
:101A4000D8B025EF0DF027EF0DF052EF0DF0A051BB
:101A5000A45DA86FA151A559A96FA251A659AA6F5B
:101A6000A351A759AB6FFF0EA825A06FFF0EA921A8
:101A7000A16FFF0EAA21A26FFF0EAB21A36F800EF4
:101A8000AC1BAF6DAF51D8A448EF0DF04AEF0DF08D
:101A90005AEF0DF0010EA027000EA123A223A323CD
:101AA0005AEF0DF0A451A05FA551A15BA651A25B16
:101AB000A751A35BA051A111A211A311D8A463EF58
:101AC0000DF065EF0DF09AEF0DF0AF51D8A46BEF6C
:101AD0000DF06DEF0DF09AEF0DF0000EA06F000EFF
:101AE000A16F000EA26F000EA36F35EF0EF0D8901D
:101AF000A037A137A237A337AFAF81EF0DF083EF47
:101B00000DF084EF0DF0A081AFA189EF0DF08BEF08
:101B10000DF08FEF0DF0D880AF3791EF0DF0D8902A
:101B2000AF37AE51D8B497EF0DF099EF0DF09AEFB3
:101B30000DF0AE07A2AF9FEF0DF0A1EF0DF077EF24
:101B40000DF0000EAD6FAFAFA8EF0DF0AAEF0DF0E6
:101B5000C2EF0DF0AFC0A8F07F0EA817D8B4B3EF56
:101B60000DF0B5EF0DF0B9EF0DF0010EAD6FC2EF56
:101B70000DF0A0A1BEEF0DF0C0EF0DF0C2EF0DF023
:101B8000B5EF0DF0AD51D8B4C8EF0DF0CAEF0DF0C0
:101B9000F5EF0DF0010EA027000EA123A223A32331
:101BA000A3A1D5EF0DF0D7EF0DF0F5EF0DF0A0C02C
:101BB000A8F0A1C0A9F0A2C0AAF0A3C0ABF0AB35B9
:101BC000AB33AA33A933A833A8C0A0F0A9C0A1F0B1
:101BD000AAC0A2F0ABC0A3F0AE29D8B4F2EF0DF0CA
:101BE000F4EF0DF0F5EF0DF0AE2BAE29D8B4FBEF0E
:101BF0000DF0FDEF0DF005EF0EF0AE51D8A403EFA0
:101C00000EF005EF0EF017EF0EF0000EA06F000EB5
:101C1000A16F000EA26F000EA36FAE51D8A413EFF8
:101C20000EF015EF0EF017EF0EF0000EAC6FAEA138
:101C30001CEF0EF01EEF0EF021EF0EF0A28F22EF40
:101C40000EF0A29FD890AE31A36FACAF2AEF0EF08A
:101C50002CEF0EF02DEF0EF0A38FA0C0A0F0A1C0CE
:101C6000A1F0A2C0A2F0A3C0A3F012000001715124
:101C7000800B7A6F71517125806F70AF42EF0EF05B
:101C800044EF0EF045EF0EF080818051D8B44BEF59
:101C90000EF04DEF0EF060EF0EF08029D8A453EF58
:101CA0000EF055EF0EF05DEF0EF0000E6E6F000EB1
:101CB0006F6F000E706F000E716F708F68EF0EF017
:101CC000000E6E6F000E6F6F000E706F000E716F62
:101CD0007551800B7A1B755175257F6F74AF73EF4B
:101CE0000EF075EF0EF076EF0EF07F817F51D8B4D5
:101CF0007CEF0EF07EEF0EF091EF0EF07F29D8A46E
:101D000084EF0EF086EF0EF08EEF0EF0000E726F85
:101D1000000E736F000E746F000E756F748F99EF65
:101D20000EF0000E726F000E736F000E746F000ED7
:101D3000756F7F51D8B49FEF0EF0A1EF0EF0A9EFB1
:101D40000EF08051D8A4A7EF0EF0A9EF0EF0B3EF7C
:101D50000EF0000E6E6F000E6F6F000E706F000EB3
:101D6000716F4BEF10F074516E03F3CF85F0F4CF29
:101D700086F085517B6F7C6B7D6B7E6B8651816FAE
:101D8000826B836B846B73516F03F3CF85F0F4CF59
:101D900086F085517B27000E7C237D237E23865190
:101DA0008127000E82238323842372517003F3CF93
:101DB00085F0F4CF86F085517B27000E7C237D23B0
:101DC0007E2386518127000E8223832384237DC0B6
:101DD0007EF07CC07DF07BC07CF07B6B72516F032A
:101DE000F3CF85F0F4CF86F085517B2786517C2395
:101DF000000E7D23000E7E2373516E03F3CF85F01A
:101E0000F4CF86F085517B2786517C23000E7D23FD
:101E1000000E7E237DC07EF07CC07DF07BC07CF018
:101E20007B6B72516E03F3CF85F0F4CF86F0855152
:101E30007B2786517C23000E7D23000E7E23745168
:101E40006F03F3CF85F0F4CF86F08551812786515B
:101E50008223000E8323000E842373517003F3CF7B
:101E600085F0F4CF86F08551812786518223000EBC
:101E70008323000E842374517003F3CF85F0F4CFD5
:101E800086F08551766F8651776F786B796B78C065
:101E900079F077C078F076C077F0766B765181274D
:101EA0007751822378518323795184237BC076F044
:101EB0007CC077F07DC078F07EC079F0190E66EFB7
:101EC0000FF0D8907933783377337633E82E61EF9B
:101ED0000FF07651812777518223785183237951EE
:101EE00084237DC07EF07CC07DF07BC07CF07B6B6A
:101EF0007F5180C076F0776B7627000E7723820EB5
:101F00007625856FFF0E7721866F9CEF0FF0D890B6
:101F100081378237833784377EAF91EF0FF093EFAD
:101F20000FF094EF0FF08181D8907B377C377D37AD
:101F30007E378507D8A0860783AFA1EF0FF0A3EF08
:101F40000FF087EF0FF0000E7F6F7EAFAAEF0FF05C
:101F5000ACEF0FF0D0EF0FF0FF0E7B15766FFF0E9A
:101F60007C15776FFF0E7D15786F7F0E7E15796F6C
:101F70007651771178117911D8B4C1EF0FF0C3EF12
:101F80000FF0C7EF0FF0010E7F6FD0EF0FF081A1C0
:101F9000CCEF0FF0CEEF0FF0D0EF0FF0C3EF0FF05C
:101FA0007F51D8B4D6EF0FF0D8EF0FF0FCEF0FF061
:101FB000010E8127000E82238323842384A1E3EF73
:101FC0000FF0E5EF0FF0FCEF0FF081C076F082C06C
:101FD00077F083C078F084C079F07935793378333D
:101FE0007733763376C081F077C082F078C083F0A3
:101FF00079C084F0854B862B86BF07EF10F08651A1
:1020000008E18529D8A007EF10F009EF10F013EFD1
:1020100010F0000E816F000E826F800E836F7F0EB6
:10202000846F41EF10F086BF20EF10F0865106E17B
:102030008505D8B01EEF10F020EF10F02CEF10F057
:10204000000E816F000E826F000E836F000E846F92
:10205000000E7A6F41EF10F085C080F0FF0E8117FF
:10206000FF0E82177F0E8317000E841780A13BEFAF
:1020700010F03DEF10F03EEF10F0838FD8908031DC
:10208000846F7A51841381C06EF082C06FF083C078
:1020900070F084C071F0120000018A51800B976FBC
:1020A0008A518A259E6F89AF58EF10F05AEF10F0D1
:1020B0005BEF10F09E819E51D8B461EF10F063EF9A
:1020C00010F078EF10F09E29D8A469EF10F06BEFB4
:1020D00010F073EF10F0000E876F000E886F000E87
:1020E000896F000E8A6F898F000E8A6F80EF10F063
:1020F000000E876F000E886F000E896F000E8A6FCA
:102100008E51800B971B8E518E259F6F8DAF8BEF5D
:1021100010F08DEF10F08EEF10F09F819F51D8B42A
:1021200094EF10F096EF10F0ABEF10F09F29D8A4C9
:102130009CEF10F09EEF10F0A6EF10F0000E8B6FEA
:10214000000E8C6F000E8D6F000E8E6F8D8F000E47
:102150008E6FB3EF10F0000E8B6F000E8C6F000EC1
:102160008D6F000E8E6F8B518C118D118E11D8A436
:10217000BCEF10F0BEEF10F0D6EF10F0000E876F3E
:10218000000E886F000E896F000E8A6F800E891313
:102190007F0E8A1397518A1387C087F088C088F012
:1021A00089C089F08AC08AF019EF12F09E51D8A434
:1021B000DCEF10F0DEEF10F0E8EF10F0000E876FAC
:1021C000000E886F000E896F000E8A6F19EF12F0F3
:1021D0009F519EC08FF0906B8F5F000E905B7F0EC3
:1021E0008F25986F000E9021996F87C093F088C05B
:1021F00094F089C095F08AC096F0000E876F000EAB
:10220000886F000E896F000E8A6F000E9A6F000EA5
:102210009B6F000E9C6F000E9D6F000E9F6F49EF2D
:1022200011F09F51D8B417EF11F019EF11F030EF02
:1022300011F0D8909337943795379637D8908737E1
:10224000883789378A379DAF28EF11F02AEF11F0D0
:102250002BEF11F08781D8909A379B379C379D37A9
:102260008B51935D8C5194598D5195598E5196593E
:10227000D8A03DEF11F03FEF11F048EF11F09D8D28
:102280008B51935F8C51945B8D51955B8E51965B16
:102290009F2B190E9F654FEF11F051EF11F011EFC9
:1022A00011F09351941195119611D8B45AEF11F081
:1022B0005CEF11F074EF11F09A8174EF11F0D89087
:1022C0008737883789378A379DAF69EF11F06BEF11
:1022D00011F06CEF11F08781D8909A379B379C37BB
:1022E0009D379807D8A0990789AF79EF11F07BEF58
:1022F00011F05FEF11F0000E9F6F9DAF82EF11F0B4
:1023000084EF11F0A8EF11F0FF0E9A158F6FFF0EFA
:102310009B15906FFF0E9C15916F7F0E9D15926F10
:102320008F51901191119211D8B499EF11F09BEF48
:1023300011F09FEF11F0010E9F6FA8EF11F087A130
:10234000A4EF11F0A6EF11F0A8EF11F09BEF11F040
:102350009F51D8B4AEEF11F0B0EF11F0D4EF11F0FF
:10236000010E8727000E882389238A238AA1BBEFC9
:1023700011F0BDEF11F0D4EF11F087C08FF088C0DD
:1023800090F089C091F08AC092F0923592339133E7
:1023900090338F338FC087F090C088F091C089F060
:1023A00092C08AF0984B992B99BFDFEF11F09951A9
:1023B00008E19829D8A0DFEF11F0E1EF11F0ECEF80
:1023C00011F0000E996F9869000E876F000E886FEC
:1023D000000E896F000E8A6F99BFF9EF11F09951C5
:1023E00006E19805D8B0F7EF11F0F9EF11F007EF1B
:1023F00012F0000E996F000E986F000E876F000E9E
:10240000886F000E896F000E8A6F000E976F98C05C
:102410009EF09EA10EEF12F010EF12F013EF12F0EB
:10242000898F14EF12F0899FD8909E318A6FCAEF7E
:1024300010F01200000E1D6E000E1E6E000E1F6EBC
:10244000000E206E000E176E000E166E2AEF12F0B0
:102450000D4A0E2A010E1C6E0DC0D9FF0EC0DAFF08
:10246000200EDE18D8B437EF12F039EF12F055EF26
:1024700012F0F70E116EFF0E126E0DC0D9FF0EC0D6
:10248000DAFFDF50136E146A115013261250142213
:10249000145009E1050E135CD8A051EF12F053EF70
:1024A00012F055EF12F0000E1C6E1CC018F0196AE5
:1024B00018501910D8A45FEF12F061EF12F028EF56
:1024C00012F06BEF12F0000E176E010E166E0D4A31
:1024D0000E2AB2EF12F00DC0D9FF0EC0DAFFDF50A6
:1024E000116E126A1250000AD8B479EF12F0B2EFEE
:1024F00012F011502B0AD8B467EF12F0060AD8B4C4
:1025000063EF12F0B2EF12F00DC0D9FF0EC0DAFF88
:10251000DF50116ED00E1124126E136AFF0E1322BB
:10252000146A156A1DC001F01EC002F01FC003F03E
:1025300020C004F00A0E056E000E066E000E076E37
:10254000000E086E55EC19F01250015C1D6E135010
:1025500002581E6E145003581F6E15500458206EFA
:1025600067EF12F0D00E116EFF0E126E0DC0D9FF84
:102570000EC0DAFFDF50136E146A1150132612508A
:10258000142214500AE10A0E135CD8A0CAEF12F00C
:10259000CDEF12F0010ECEEF12F0000E1A6E1B6A94
:1025A0001A501B10D8A4D7EF12F0D9EF12F084EF15
:1025B00012F016501710D8A4E0EF12F0E2EF12F06C
:1025C000FDEF12F01DC011F01EC012F01FC013F07D
:1025D00020C014F0111E121E131E141E112A000E0C
:1025E00012221322142211C00DF012C00EF013C0DB
:1025F0000FF014C010F005EF13F01DC00DF01EC059
:102600000EF01FC00FF020C010F012000001686F24
:1026100000016851D8B40FEF13F011EF13F033EF4E
:1026200013F063BF18EF13F016EF13F033EF13F04E
:1026300060C064F061C065F062C066F063C067F0BE
:10264000641F651F661F671F642B000E65236623CA
:10265000672364C06AF065C06BF066C06CF067C049
:102660006DF03BEF13F060C06AF061C06BF062C0C8
:102670006CF063C06DF06051611162116311D8A4F8
:1026800044EF13F046EF13F050EF13F0000E606FBD
:10269000000E616F000E626F000E636FE1EF13F0CA
:1026A000960E696F5AEF13F0692BD8906D336C3327
:1026B0006B336A33000E6A15646F000E6B15656F1D
:1026C000000E6C15666FFE0E6D15676F6451651117
:1026D00066116711D8A46FEF13F071EF13F054EF88
:1026E00013F07FEF13F0692B010E6A27000E6B23A6
:1026F0006C236D23D8906D336C336B336A33000ECB
:102700006A15646F000E6B15656F000E6C15666FB1
:10271000FF0E6D15676F6451651166116711D8A4BE
:1027200094EF13F096EF13F073EF13F09EEF13F0A6
:102730006907D8906A376B376C376D376CBFA3EF7A
:1027400013F0A5EF13F0ADEF13F0020E6961ABEFDC
:1027500013F0ADEF13F098EF13F069B1B2EF13F08F
:10276000B4EF13F0B5EF13F06C9FD890693369C0E4
:1027700064F0656B666B676B64C067F0666B656B76
:10278000646B64516A1365516B1366516C13675126
:102790006D136851D8B4CFEF13F0D1EF13F0D9EF28
:1027A00013F063BFD8EF13F0D6EF13F0D9EF13F0A7
:1027B0006D8F6AC060F06BC061F06CC062F06DC07C
:1027C00063F01200100E056E270E066E000E076EE7
:1027D000000E086E21C001F022C002F023C003F0F9
:1027E00024C004F0B3EC17F001C00EF002C00FF0EB
:1027F00003C010F004C011F0640E126E000E136ED0
:10280000000E146E000E156ED6EC18F00EC035F0EA
:102810000FC036F010C037F011C038F0640E056EEE
:10282000000E066E000E076E000E086E21C001F04D
:1028300022C002F023C003F024C004F0B3EC17F070
:1028400001C00EF002C00FF003C010F004C011F080
:10285000640E126E000E136E000E146E000E156ED6
:10286000D6EC18F00EC02DF00FC02EF010C02FF0D7
:1028700011C030F021C00EF022C00FF023C010F0C4
:1028800024C011F0640E126E000E136E000E146E52
:10289000000E156ED6EC18F00EC031F00FC032F0FD
:1028A00010C033F011C034F0090E35240E6E000E46
:1028B00036200F6E000E3720106E000E3820116E7D
:1028C000180E126E000E136E000E146E000E156EB2
:1028D000D6EC18F00EC035F00FC036F010C037F04F
:1028E00011C038F035C001F036C002F037C003F037
:1028F00038C004F0100E056E270E066E000E076E2F
:10290000000E086E55EC19F001C025F002C026F04B
:1029100003C027F004C028F02DC001F02EC002F043
:102920002FC003F030C004F0640E056E000E066E7A
:10293000000E076E000E086E55EC19F001502524AC
:10294000296E025026202A6E035027202B6E045039
:1029500028202C6E31502924216E32502A20226EDC
:1029600033502B20236E34502C20246E120001C0D3
:102970000BF002C00CF005500610D8A4C2EF14F002
:10298000C4EF14F0C6EF14F071EF15F00BC0D9FFCF
:102990000CC0DAFF03C0DFFF05500B24076E0650A2
:1029A0000C20086EFF0E0724D96EFF0E0820DA6E89
:1029B00003C0DFFF065007E1030E055CD8B0E3EF6C
:1029C00014F0E5EF14F0E7EF14F071EF15F020EEDE
:1029D00001F00B50D9260C50DA2203C0DFFF20EEA5
:1029E00002F00B50D9260C50DA2203C0DFFF05504D
:1029F0000B24076E06500C20086EFE0E0724D96EBD
:102A0000FF0E0820DA6E03C0DFFF05500B24076EAF
:102A100006500C20086EFD0E0724D96EFF0E08200C
:102A2000DA6E03C0DFFF065007E1070E055CD8B081
:102A30001CEF15F01EEF15F020EF15F071EF15F0FB
:102A400020EE03F00B50D9260C50DA2203C0DFFF32
:102A500005500B24076E06500C20086EFC0E072450
:102A6000D96EFF0E0820DA6E03C0DFFF065007E1C3
:102A7000090E055CD8B03FEF15F041EF15F043EFBC
:102A800015F071EF15F00BC007F00CC008F0071E31
:102A9000081E074A082A030E0714096E0A6A09501D
:102AA0000B260A500C220950055E0A50065AFC0EED
:102AB0000516FF0E061668EF15F00BC0D9FF0CC007
:102AC000DAFF03C0DFFF0506D8A006060B4A0C2A72
:102AD00005500610D8A46FEF15F071EF15F05DEFFB
:102AE00015F012003B6EABEF15F0240E3B18D8A486
:102AF0007CEF15F07EEF15F0D9EF15F0440E016E66
:102B0000000E026E000E046E000E036E000E066EC6
:102B10000A0E056EB7EC14F0404A412AD9EF15F0C1
:102B20005A0E3B18D8A497EF15F099EF15F09BEFCC
:102B300015F08CEF15F0000E416E000E406ED9EFCF
:102B400015F03D0E4024D96E000E4120DA6E3BC0D8
:102B5000DFFF8CEF15F040C039F041C03AF03A5039
:102B6000000AD8B4B6EF15F08CEF15F03950000A12
:102B7000D8B475EF15F0030AD8B490EF15F0040A35
:102B8000D8B4A1EF15F00F0AD8B4A1EF15F0010ADF
:102B9000D8B4A1EF15F0030AD8B4A1EF15F0010ADB
:102BA000D8B4A1EF15F0070AD8B4A1EF15F08CEF57
:102BB00015F041BEE5EF15F0415009E10D0E405C06
:102BC000D8A0E5EF15F0E7EF15F003EF16F0440E8F
:102BD0000D6E000E0E6E1AEC12F00DC021F00EC03C
:102BE00022F00FC023F010C024F0E2EC13F021C05B
:102BF000BCF022C0BDF023C0BEF024C0BFF0000E68
:102C0000416E000E406E12000001B235B335B96F4F
:102C1000B951D8A40EEF16F010EF16F01AEF16F017
:102C2000000EB06F000EB16F000EB26F000EB36FEA
:102C300087EF16F0B0C0B4F0B1C0B5F0B2C0B6F0D6
:102C4000B3C0B7F0200E2AEF16F0D890B733B633E2
:102C5000B533B433E82E25EF16F0B451B86FB28F08
:102C6000FF0EB017FF0EB117FF0EB217000EB3170D
:102C7000960EB95FB9BF41EF16F03FEF16F057EF70
:102C800016F0B951800A970FD8B049EF16F04BEF04
:102C900016F04DEF16F010EF16F0D890B333B233B4
:102CA000B133B033B93F4DEF16F06FEF16F01F0E92
:102CB000B9655DEF16F05FEF16F067EF16F010EFF5
:102CC00016F0D890B037B137B237B337B907B9512A
:102CD000D8A46DEF16F06FEF16F061EF16F0B85153
:102CE000D8B475EF16F077EF16F07FEF16F0B31F3C
:102CF000B21FB11FB06D000EB123B223B323B0C019
:102D0000B0F0B1C0B1F0B2C0B2F0B3C0B3F01200D5
:102D1000000164516511D8A490EF16F092EF16F0FF
:102D200094EF16F00AEF17F06751D8A49AEF16F057
:102D30009CEF16F0DCEF16F066C068F0010E696FCC
:102D40006A6B6B6B6C6B6D6B6E6B6F6B706B682B08
:102D5000B3EF16F0D89069376A376B376C376D3739
:102D60006E376F377037682FAAEF16F0691D716FD5
:102D70006A1D726F6B1D736F6C1D746F6D1D756FA7
:102D80006E1D766F6F1D776F701D786F64C0D9FFF1
:102D900065C0DAFF7151DE167251DE167351DE1610
:102DA0007451DE167551DE167651DE167751DE1639
:102DB0007851DE160AEF17F066C068F0010E696FF1
:102DC0006A6B6B6B6C6B6D6B6E6B6F6B706B682B88
:102DD000F3EF16F0D89069376A376B376C376D3779
:102DE0006E376F377037682FEAEF16F064C0D9FF7F
:102DF00065C0DAFF6951DE126A51DE126B51DE12D4
:102E00006C51DE126D51DE126E51DE126F51DE1208
:102E10007051DE121200000E9D6E900E9C6E000E20
:102E20000001A46F000EA56F800EA66FBF0EA76FE6
:102E3000000E726F000E736F800E746F420E756F0E
:102E4000BAC060F0BBC061F0626B636B000E06EC51
:102E500013F060C06EF061C06FF062C070F063C0CC
:102E600071F036EC0EF06EC08BF06FC08CF070C05D
:102E70008DF071C08EF0000E0001876F240E886FF8
:102E8000740E896F4C0E8A6F4CEC10F087C0A0F066
:102E900088C0A1F089C0A2F08AC0A3F0D5EC0BF0E5
:102EA000A0C0B0F0A1C0B1F0A2C0B2F0A3C0B3F016
:102EB00004EC16F00001B0519A6E0E01C08B1200A6
:102EC000000E0001686F000E696F000E6A6F000E41
:102ED0006B6F6451651166116711D8B472EF17F00A
:102EE00074EF17F0AAEF17F0010E6C6F7EEF17F07A
:102EF000D89064376537663767376C2B67AF83EFD9
:102F000017F085EF17F078EF17F0D890683769372A
:102F10006A376B376451605D65516159665162591A
:102F200067516359D8A097EF17F099EF17F0A2EF08
:102F300017F06451605F6551615B6651625B675178
:102F4000635B6881D89067336633653364336C2F75
:102F500085EF17F068C060F069C061F06AC062F088
:102F60006BC063F01200000E096E000E0A6E000EB8
:102F70000B6E000E0C6E0550061007100810D8B42A
:102F8000C4EF17F0C6EF17F0FCEF17F0010E0D6E4F
:102F9000D0EF17F0D89005360636073608360D2ADA
:102FA00008AED5EF17F0D7EF17F0CAEF17F0D890AB
:102FB00009360A360B360C360550015C06500258AD
:102FC0000750035808500458D8A0E9EF17F0EBEF6A
:102FD00017F0F4EF17F00550015E0650025A075043
:102FE000035A0850045A0980D89008320732063232
:102FF00005320D2ED7EF17F009C001F00AC002F01C
:103000000BC003F00CC004F01200600E0E01D36F71
:10301000080ED96F000E876E080E886E010E896E3D
:10302000000E0F010C6F000E146F000E1C6F900E3F
:10303000D46ED00ED56E0E01BD8B010EBE6EFE0E8F
:10304000BB6EF00EBC6E800EA46EAD50CF0B10099F
:10305000AD6E000E0001616F000E606F030E1AEC82
:1030600019F0550E0E019B6FAA0E9B6F000E9B6F01
:10307000100EB06F070EF56F550E9B6FAA0E9B6F6B
:10308000000E9B6F250E0001BB6F800EBA6F0BEC1C
:1030900017F0F28EF28C120000017151721173114F
:1030A0007411D8B456EF18F058EF18F088EF18F0F4
:1030B000010E756F62EF18F0D89071377237733761
:1030C0007437752B74AF67EF18F069EF18F05CEF89
:1030D00018F071516D5D72516E5973516F59745181
:1030E0007059D8A076EF18F078EF18F080EF18F04C
:1030F00071516D5F72516E5B73516F5B7451705B98
:10310000D8907433733372337133752F69EF18F0BD
:103110006DC06DF06EC06EF06FC06FF070C070F07B
:103120001200000E0001716F000E706F705160C0D0
:1031300068F061C069F062C06AF063C06BF064C09F
:103140006CF065C06DF066C06EF067C06FF0E82A85
:10315000B3EF18F0D8906F336E336D336C336B333D
:103160006A3369336833E82EAAEF18F06831D8B0B3
:10317000BCEF18F0BFEF18F0848AC0EF18F0849A03
:10318000849E848E0001704B712B71BFD1EF18F0BB
:10319000715109E1400E705DD8A0D1EF18F0D3EF66
:1031A00018F096EF18F0849C848C120012501310C3
:1031B00014101510D8B4DFEF18F0E1EF18F011EF8C
:1031C00019F0010E166EEBEF18F0D8901236133688
:1031D00014361536162A15AEF0EF18F0F2EF18F087
:1031E000E5EF18F012500E5C13500F5814501058A1
:1031F00015501158D8A0FFEF18F001EF19F009EFA2
:1032000019F012500E5E13500F5A1450105A1550E8
:10321000115AD8901532143213321232162EF2EFA0
:1032200018F00EC00EF00FC00FF010C010F011C05B
:1032300011F012000001646F3EEF19F060C062F0FF
:1032400061C063F063356333623363356333623384
:103250006251A36E60C0A2FF54EF19F060C062F02B
:1032600061C063F063356333623363356333623364
:103270006251A06E60C09FFF54EF19F000016451CD
:10328000626F636B6351000AD8B449EF19F054EFD1
:1032900019F06251030AD8B41EEF19F0070AD8B426
:1032A0002EEF19F054EF19F01200000E096E000E07
:1032B0000A6E000E0B6E000E0C6E01A062EF19F08C
:1032C00064EF19F06CEF19F00550092606500A2238
:1032D00007500B2208500C22D890053606360736C8
:1032E0000836D89004320332023201320150021003
:1032F00003100410D8A47FEF19F081EF19F05DEFEF
:1033000019F009C001F00AC002F00BC003F00CC0B4
:1033100004F01200010E076E200E01180210D8B43E
:1033200094EF19F096EF19F0AFEF19F0F70E036E66
:10333000FF0E046E01C005F002C006F00350052622
:1033400004500622065009E1050E055CD8A0ABEF3B
:1033500019F0ADEF19F0AFEF19F0000E076E07C0CE
:1033600001F0026A120005EC18F0000E0001616F16
:10337000020E606FDBEC19F00009D8B4C2EF19F04F
:10338000C4EF19F0C6EF19F001EC1AF08DA6CBEFDF
:1033900019F0CDEF19F0B5EF19F0BCC079F0BDC050
:1033A0007AF0BEC07BF0BFC07CF0AAEC07F0B5EFAE
:1033B00019F032EF00F00001C4514318D8B4E3EF24
:1033C00019F0E5EF19F0FFEF19F043C0C4F0C04B5E
:1033D000C12B6051C05DC151800A626F6151800A8A
:1033E0006259D8A0F6EF19F0F8EF19F0FFEF19F0D5
:1033F000000EC16F000EC06F010E00EF1AF0000E3C
:1034000012008DA606EF1AF008EF1AF015EF1AF069
:103410000001C305D8B00FEF1AF011EF1AF01AEF40
:103420001AF0C24BC32B1AEF1AF0000E0001C36F43
:10343000000EC26FC2C060F0C3C061F0030E1AEC90
:1034400019F01200D00E036EFF0E046E01C005F0DD
:1034500002C006F0035005260450062206500AE179
:103460000A0E055CD8A037EF1AF03AEF1AF0010EF9
:103470003BEF1AF0000E016E026A12000001636F4A
:1034800000016351080D010E616F0F0E626FF35062
:103490006127F450622360516127000E622361C0EE
:1034A000F6FF62C0F7FF000EF86E0800F55012003C
:1034B00000EEBCF0090EEE6AE806FDE100EE3EF01B
:1034C000100EEE6AE806FDE14E904E920001B3EF59
:1034D00019F09CA26EEF1AF070EF1AF072EF1AF06A
:0834E0009C989C889850120092
:020000040020DA
:10000000FFFFFFFFFFFFFFFFFFFFFFFFFFFFFFFF00
:10001000FFFFFFFFFFFFFFFFFFFFFFFFFFFFFFFFF0
:10002000FFFFFFFFFFFFFFFFFFFFFFFFFFFFFFFFE0
:10003000FFFFFFFFFFFFFFFFFFFFFFFFFFFFFFFFD0
:10004000FFFFFFFFFFFFFFFFFFFFFFFFFFFFFFFFC0
:10005000FFFFFFFFFFFFFFFFFFFFFFFFFFFFFFFFB0
:10006000FFFFFFFFFFFFFFFFFFFFFFFFFFFFFFFFA0
:10007000FFFFFFFFFFFFFFFFFFFFFFFFFFFFFFFF90
:10008000FFFFFFFFFFFFFFFFFFFFFFFFFFFFFFFF80
:10009000FFFFFFFFFFFFFFFFFFFFFFFFFFFFFFFF70
:1000A000FFFFFFFFFFFFFFFFFFFFFFFFFFFFFFFF60
:1000B000FFFFFFFFFFFFFFFFFFFFFFFFFFFFFFFF50
:1000C000FFFFFFFFFFFFFFFFFFFFFFFFFFFFFFFF40
:1000D000FFFFFFFFFFFFFFFFFFFFFFFFFFFFFFFF30
:1000E000FFFFFFFFFFFFFFFFFFFFFFFFFFFFFFFF20
:1000F000FFFFFFFFFFFFFFFFFFFFFFFFFFFFFFFF10
:020000040030CA
:0C0000008CD77EFF9FFFFFCFFFFFFFFFAC
:00000001FF
